:100000000C942A000C9447000C9447000C94470071
:100010000C9447000C9447000C9447000C94470044
:100020000C9447000C9447000C9447000C94470034
:100030000C9447000C9447000C9447000C94470024
:100040000C9447000C9447000C9447000C94470014
:100050000C94470011241FBECFE5D8E0DEBFCDBF12
:1000600010E0A0E6B0E0E2EEF1E202C005900D92F1
:10007000AA36B107D9F710E0AAE6B0E001C01D9298
:10008000AA37B107E1F70E94AD0F0C94EF100C9462
:100090000000EF92FF920F931F937B018C0120E0F1
:1000A00030E040E05FE40E94F50388238CF0C80153
:1000B000B70120E030E040E05FE40E94C1010E940F
:1000C00055049B01AC01205030404040504806C0D0
:1000D000C801B7010E9455049B01AC01B901CA01D6
:1000E0001F910F91FF90EF900895A0E0B0E0EBE733
:1000F000F0E00C94B810DC012B01FA019C919230D5
:1001000008F439C1EB018881823008F433C194309E
:1001100069F4843009F02FC111969C91119789815F
:10012000981709F428C1A2E6B0E025C1843009F48B
:1001300021C18230A9F4923009F01DC19A01AD01AC
:1001400088E0EA010990AE01E90109929E0181501F
:10015000C1F7E201898111969C918923818308C1AD
:10016000923009F407C112962D903C901397EB0141
:100170008A819B811496AD90BD90CD90DC901797AD
:10018000EC80FD800E811F819101281B390BB90184
:1001900037FF04C066277727621B730B6032710537
:1001A0000CF061C0121613066CF537014801062EDB
:1001B00004C096948794779467940A94D2F721E0C8
:1001C00030E040E050E004C0220F331F441F551FB1
:1001D0006A95D2F721503040404050402E213F21B7
:1001E00040235123211531054105510521F021E01E
:1001F00030E040E050E079018A01E628F72808293C
:1002000019293CC0232BD1F1260E371E350146019A
:10021000062E04C096948794779467940A94D2F734
:1002200021E030E040E050E004C0220F331F441FC3
:10023000551F6A95D2F721503040404050402A2146
:100240003B214C215D21211531054105510521F04E
:1002500021E030E040E050E059016A01A628B728CB
:10026000C828D9280BC0821593052CF01C01AA249C
:10027000BB24650103C0EE24FF24870111969C91E5
:10028000D20111968C91981709F445C0992339F041
:10029000A80197012A193B094C095D0906C0A6016E
:1002A00095012E193F09400B510B57FD08C01182D3
:1002B0003382228224833583468357831DC081E0A5
:1002C00081833382228288279927DC01821B930B4A
:1002D000A40BB50B84839583A683B7830DC0220F2F
:1002E000331F441F551F24833583468357838281E0
:1002F000938101979383828324813581468157813D
:10030000DA01C9010197A109B1098F5F9F4FAF4F72
:10031000BF4328F30BC0918333822282EA0CFB1C7B
:100320000C1D1D1DE482F5820683178383E0808304
:10033000248135814681578157FF1AC0C901AA27F8
:1003400097FDA095BA2F81709070A070B0705695EF
:10035000479537952795822B932BA42BB52B848318
:100360009583A683B7838281938101969383828349
:10037000DF0101C0D201CD01CDB7DEB7E2E10C94BF
:10038000D410A0E2B0E0E7ECF1E00C94C410698373
:100390007A838B839C832D833E834F835887E9E048
:1003A000EE2EF12CEC0EFD1ECE010196B7010E943F
:1003B0007E058E010F5E1F4FCE010596B8010E948B
:1003C0007E058A8991E089278A8BC701B801AE0131
:1003D000475E5F4F0E9475000E94A904A096E6E068
:1003E0000C94E010A0E2B0E0E8EFF1E00C94C4104F
:1003F00069837A838B839C832D833E834F835887C5
:10040000F9E0EF2EF12CEC0EFD1ECE010196B701A6
:100410000E947E058E010F5E1F4FCE010596B8012A
:100420000E947E05C701B801AE01475E5F4F0E9482
:1004300075000E94A904A096E6E00C94E010A0E2EA
:10044000B0E0E5E2F2E00C94B81069837A838B8324
:100450009C832D833E834F835887CE010196BE0136
:10046000675F7F4F0E947E05CE010596BE016F5EDD
:100470007F4F0E947E059985923088F0898982306D
:10048000C8F0943019F4823051F404C0843029F457
:10049000923081F482E690E0C6C0923049F420E0C8
:1004A0009A858A89981321E02A87CE010996BBC0D4
:1004B000823049F420E09A858A89981321E02A8BBA
:1004C000CE014196B0C02D843E844F8458886D88FB
:1004D0007E888F88988CEE24FF248701AA24BB2471
:1004E000650140E050E060E070E0E0E0F0E0C10174
:1004F00081709070892BE9F0E60CF71C081D191D1E
:100500009A01AB012A0D3B1D4C1D5D1D80E090E062
:10051000A0E0B0E0E614F7040805190520F481E036
:1005200090E0A0E0B0E0BA01A901480F591F6A1F8E
:100530007B1FAA0CBB1CCC1CDD1C97FE08C081E0F5
:1005400090E0A0E0B0E0A82AB92ACA2ADB2A3196B6
:10055000E032F10549F0660C771C881C991C569412
:10056000479437942794C3CFFA85EA892B893C892D
:100570008B859C85280F391F2E5F3F4F17C0CA01FE
:1005800081709070892B61F016950795F794E79428
:1005900080E090E0A0E0B0E8E82AF92A0A2B1B2BC3
:1005A00076956795579547952F5F3F4F77FDE7CF36
:1005B0000CC0440F551F661F771F17FD4160EE0CDE
:1005C000FF1C001F111F21503040403090E05907A0
:1005D00090E0690790E4790760F32B8F3C8FDB0193
:1005E000CA018F779070A070B07080349105A1051A
:1005F000B10561F447FD0AC0E114F10401051105DC
:1006000029F0405C5F4F6F4F7F4F40781A8EFE1786
:1006100011F081E08A8F4D8F5E8F6F8F78A383E01A
:10062000898FCE0149960E94A904A096E2E10C941C
:10063000D410A8E1B0E0EFE1F3E00C94C0106983BE
:100640007A838B839C832D833E834F835887B9E0C5
:10065000EB2EF12CEC0EFD1ECE010196B7010E948F
:100660007E058E010F5E1F4FCE010596B8010E94D8
:100670007E052985223008F47EC03989323010F495
:10068000B8017CC08A859A8989278A87243011F02D
:10069000223031F4231709F06EC062E670E06EC0BC
:1006A000343039F41D861E861F86188A1C861B86E8
:1006B00004C0323021F484E08987B7015FC02B8504
:1006C0003C858B899C89281B390B3C872B87ED84C3
:1006D000FE840F851889AD88BE88CF88D88CEA142F
:1006E000FB040C051D0540F4EE0CFF1C001F111F40
:1006F000215030403C872B8720E030E040E050E044
:1007000080E090E0A0E0B0E460E070E0EA14FB0478
:100710000C051D0540F0282B392B4A2B5B2BEA18C2
:10072000FB080C091D09B695A79597958795EE0CC2
:10073000FF1C001F111F6F5F7F4F6F31710531F775
:10074000DA01C9018F779070A070B0708034910584
:10075000A105B10561F427FD0AC0E114F10401050A
:10076000110529F0205C3F4F4F4F5F4F20782D87B8
:100770003E874F87588BBE01675F7F4FCB010E943A
:10078000A9046896EAE00C94DC10A8E1B0E0EBEC78
:10079000F3E00C94C41069837A838B839C832D834C
:1007A0003E834F83588789E0E82EF12CEC0EFD1E26
:1007B000CE010196B7010E947E058E010F5E1F4F8C
:1007C000CE010596B8010E947E058985823040F0F1
:1007D0008989823028F0C701B8010E94F60501C05E
:1007E0008FEF6896E6E00C94E010A8E1B0E0EBEF44
:1007F000F3E00C94C41069837A838B839C832D83EC
:100800003E834F83588789E0E82EF12CEC0EFD1EC5
:10081000CE010196B7010E947E058E010F5E1F4F2B
:10082000CE010596B8010E947E058985823040F090
:100830008989823028F0C701B8010E94F60501C0FD
:100840008FEF6896E6E00C94E010A8E1B0E0EBE2F0
:10085000F4E00C94C41069837A838B839C832D838A
:100860003E834F83588789E0E82EF12CEC0EFD1E65
:10087000CE010196B7010E947E058E010F5E1F4FCB
:10088000CE010596B8010E947E058985823040F030
:100890008989823028F0C701B8010E94F60501C09D
:1008A00081E06896E6E00C94E010ACE0B0E0EBE5A7
:1008B000F4E00C94C81069837A838B839C83CE0107
:1008C0000196BE016B5F7F4F0E947E058D81823055
:1008D00061F1823050F1843021F48E81882351F10E
:1008E0002EC02F81388537FD20C06E812F31310514
:1008F0001CF06623F9F023C08EE190E0821B930B7D
:1009000029853A854B855C8504C056954795379572
:1009100027958A95D2F76623B1F05095409530958A
:1009200021953F4F4F4F5F4F0EC020E030E040E039
:1009300050E009C02FEF3FEF4FEF5FE704C020E02A
:1009400030E040E050E8B901CA012C96E2E00C9496
:10095000E410DF92EF92FF920F931F93FC01E4806B
:10096000F58006811781D1808081823048F480E053
:1009700090E0A0E1B0E0E82AF92A0A2B1B2BA5C0E1
:10098000843009F49FC0823021F4EE24FF248701D3
:1009900005C0E114F1040105110519F4E0E0F0E0EF
:1009A00096C0628173819FEF623879070CF05BC05B
:1009B00022E83FEF261B370B2A3131052CF020E0CF
:1009C00030E040E050E02AC0B801A701022E04C088
:1009D00076956795579547950A94D2F781E090E010
:1009E000A0E0B0E004C0880F991FAA1FBB1F2A9582
:1009F000D2F70197A109B1098E219F21A023B1232C
:100A00000097A105B10521F081E090E0A0E0B0E001
:100A10009A01AB01282B392B4A2B5B2BDA01C90138
:100A20008F779070A070B07080349105A105B105EA
:100A300039F427FF09C0205C3F4F4F4F5F4F04C080
:100A4000215C3F4F4F4F5F4FE0E0F0E02030A0E0EF
:100A50003A07A0E04A07A0E45A0710F0E1E0F0E00E
:100A600079018A0127C06038710564F5FB01E158FE
:100A7000FF4FD801C7018F779070A070B07080349D
:100A80009105A105B10539F4E7FE0DC080E490E0C1
:100A9000A0E0B0E004C08FE390E0A0E0B0E0E80E9A
:100AA000F91E0A1F1B1F17FF05C016950795F7941F
:100AB000E794319687E016950795F794E7948A9521
:100AC000D1F705C0EE24FF248701EFEFF0E06E2F91
:100AD000679566276795902F9F77D794DD24D794E5
:100AE0008E2F8695492F462B582F5D29B701CA01B5
:100AF0001F910F91FF90EF90DF900895FC01DB01B3
:100B0000408151812281622F6F7770E0221F22275E
:100B1000221F9381892F880F822B282F30E0991F65
:100B20009927991F11969C93119721153105A9F5C5
:100B3000411551056105710511F482E037C082E865
:100B40009FEF13969C938E9312979A01AB0167E0E7
:100B5000220F331F441F551F6A95D1F783E08C93F2
:100B60000DC0220F331F441F551F12968D919C916B
:100B70001397019713969C938E931297203080E0E1
:100B8000380780E0480780E4580758F314962D93FF
:100B90003D934D935C93179708952F3F310579F45A
:100BA000411551056105710519F484E08C93089590
:100BB00064FF03C081E08C9312C01C9210C02F57B9
:100BC000304013963C932E93129783E08C9387E0EA
:100BD000440F551F661F771F8A95D1F770641496CE
:100BE0004D935D936D937C93179708951F93DC014C
:100BF000FB019C91923008F447C08081823008F458
:100C000043C0943051F411961C91843099F5818140
:100C1000682F70E0611B71093FC0843021F0923071
:100C200031F48230B9F18181882389F12DC0119688
:100C30001C9111978230F1F081811817D9F4129626
:100C40002D913C911397828193818217930794F0A1
:100C500028173907BCF014968D919D910D90BC9189
:100C6000A02D2481358146815781281739074A07ED
:100C70005B0718F4112341F00AC082179307A407F9
:100C8000B50740F4112319F061E070E005C06FEF83
:100C90007FEF02C060E070E0CB011F910895DF9309
:100CA000CF93CDB7DEB7A6E2B0E0E6E2F0E0808118
:100CB00080688C93A7E2B0E0E7E2F0E08081806496
:100CC0008C93A7E2B0E0E7E2F0E080818F778C932D
:100CD000A7E2B0E0E7E2F0E080818F7D8C93A6E2AE
:100CE000B0E0E6E2F0E080818F7D8C93A6E2B0E098
:100CF000E6E2F0E080818E7F8C93A6E2B0E0E6E24F
:100D0000F0E0808182608C93A6E2B0E0E6E2F0E061
:100D1000808184608C93CF91DF910895DF93CF938E
:100D200000D0CDB7DEB78983A7E2B0E0E7E2F0E01C
:100D30008081807E8C93A7E2B0E0E7E2F0E09081D2
:100D40008981892B8C93A6E2B0E0E6E2F0E0808115
:100D500080648C93E6E2F0E08081A6E2B0E0E6E217
:100D6000F0E0808180618C93E4E2F0E08081918109
:100D70000F900F90CF91DF910895DF93CF93CDB770
:100D8000DEB727970FB6F894DEBF0FBECDBF8983BD
:100D90006A834B838B81813009F06FC08981282F52
:100DA00030E03F832E838E819F818130910549F110
:100DB0002E813F81223031052CF48E819F81009756
:100DC00061F0D2C02E813F812230310571F18E81D8
:100DD0009F8183309105E9F1C7C0AAE3B0E0EAE35F
:100DE000F0E08081482F8A81282F30E081E090E078
:100DF000022E02C0880F991F0A94E2F7842B8C936D
:100E0000B3C0A7E3B0E0E7E3F0E08081482F8A8138
:100E1000282F30E081E090E0022E02C0880F991F59
:100E20000A94E2F7842B8C939FC0A4E3B0E0E4E340
:100E3000F0E08081482F8A81282F30E081E090E027
:100E4000022E02C0880F991F0A94E2F7842B8C931C
:100E50008BC0A1E3B0E0E1E3F0E08081482F8A811C
:100E6000282F30E081E090E0022E02C0880F991F09
:100E70000A94E2F7842B8C9377C08B81882309F046
:100E800073C08981282F30E03D832C838C819D8124
:100E90008130910559F12C813D81223031052CF4AE
:100EA0008C819D81009769F05FC02C813D8122304B
:100EB000310589F18C819D818330910509F440C011
:100EC00053C0AAE3B0E0EAE3F0E08081482F8A81D2
:100ED000282F30E081E090E0022E02C0880F991F99
:100EE0000A94E2F7809584238C933EC0A7E3B0E098
:100EF000E7E3F0E08081482F8A81282F30E081E00D
:100F000090E0022E02C0880F991F0A94E2F78095A4
:100F100084238C9329C0A4E3B0E0E4E3F0E0808173
:100F2000482F8A81282F30E081E090E0022E02C015
:100F3000880F991F0A94E2F7809584238C9314C03C
:100F4000A1E3B0E0E1E3F0E08081482F8A81282F1F
:100F500030E081E090E0022E02C0880F991F0A94D1
:100F6000E2F7809584238C9327960FB6F894DEBF22
:100F70000FBECDBFCF91DF910895DF93CF93CDB753
:100F8000DEB727970FB6F894DEBF0FBECDBF8983BB
:100F90006A834B838B81813009F06FC08981282F50
:100FA00030E03F832E838E819F818130910549F10E
:100FB0002E813F81223031052CF48E819F81009754
:100FC00061F0D2C02E813F812230310571F18E81D6
:100FD0009F8183309105E9F1C7C0ABE3B0E0EBE35B
:100FE000F0E08081482F8A81282F30E081E090E076
:100FF000022E02C0880F991F0A94E2F7842B8C936B
:10100000B3C0A8E3B0E0E8E3F0E08081482F8A8134
:10101000282F30E081E090E0022E02C0880F991F57
:101020000A94E2F7842B8C939FC0A5E3B0E0E5E33C
:10103000F0E08081482F8A81282F30E081E090E025
:10104000022E02C0880F991F0A94E2F7842B8C931A
:101050008BC0A2E3B0E0E2E3F0E08081482F8A8118
:10106000282F30E081E090E0022E02C0880F991F07
:101070000A94E2F7842B8C9377C08B81882309F044
:1010800073C08981282F30E03D832C838C819D8122
:101090008130910559F12C813D81223031052CF4AC
:1010A0008C819D81009769F05FC02C813D81223049
:1010B000310589F18C819D818330910509F440C00F
:1010C00053C0ABE3B0E0EBE3F0E08081482F8A81CE
:1010D000282F30E081E090E0022E02C0880F991F97
:1010E0000A94E2F7809584238C933EC0A8E3B0E095
:1010F000E8E3F0E08081482F8A81282F30E081E00A
:1011000090E0022E02C0880F991F0A94E2F78095A2
:1011100084238C9329C0A5E3B0E0E5E3F0E080816F
:10112000482F8A81282F30E081E090E0022E02C013
:10113000880F991F0A94E2F7809584238C9314C03A
:10114000A2E3B0E0E2E3F0E08081482F8A81282F1B
:1011500030E081E090E0022E02C0880F991F0A94CF
:10116000E2F7809584238C9327960FB6F894DEBF20
:101170000FBECDBFCF91DF910895DF93CF9300D005
:1011800000D000D0CDB7DEB789836A838981282F4C
:1011900030E03D832C834C815D814130510549F124
:1011A0008C819D818230910534F42C813D81211503
:1011B000310561F057C04C815D814230510561F1CC
:1011C0008C819D8183309105D1F14CC0E9E3F0E041
:1011D0008081282F30E08A81882F90E0A90102C009
:1011E000559547958A95E2F7CA01582F51705B8350
:1011F0003AC0E6E3F0E08081282F30E08A81882F32
:1012000090E0A90102C0559547958A95E2F7CA0179
:10121000582F51705B8327C0E3E3F0E08081282FD3
:1012200030E08A81882F90E0A90102C0559547954A
:101230008A95E2F7CA01582F51705B8314C0E0E32E
:10124000F0E08081282F30E08A81882F90E0A9018A
:1012500002C0559547958A95E2F7CA01582F5170FB
:101260005B8301C002C08B818E838E8126960FB670
:10127000F894DEBF0FBECDBFCF91DF910895DF930D
:10128000CF9300D000D0CDB7DEB789836A83898140
:10129000282F30E03C832B838B819C81813091050A
:1012A00049F12B813C81223031052CF48B819C81CA
:1012B000009761F05AC02B813C812230310571F1D9
:1012C0008B819C8183309105E9F14FC0ABE3B0E0A5
:1012D000EBE3F0E08081482F8A81282F30E081E025
:1012E00090E0022E02C0880F991F0A94E2F784272B
:1012F0008C933BC0A8E3B0E0E8E3F0E08081482FA6
:101300008A81282F30E081E090E0022E02C0880F11
:10131000991F0A94E2F784278C9327C0A5E3B0E0D5
:10132000E5E3F0E08081482F8A81282F30E081E0DA
:1013300090E0022E02C0880F991F0A94E2F78427DA
:101340008C9313C0A2E3B0E0E2E3F0E08081482F89
:101350008A81282F30E081E090E0022E02C0880FC1
:10136000991F0A94E2F784278C930F900F900F90A7
:101370000F90CF91DF910895DF93CF9300D000D0ED
:10138000CDB7DEB789836A838981282F30E03C831B
:101390002B838B819C8181309105D1F02B813C8105
:1013A000223031052CF48B819C81009761F01EC0A6
:1013B0002B813C812230310581F08B819C818330EF
:1013C000910581F013C0EAE3F0E08A8180830EC0CA
:1013D000E7E3F0E08A81808309C0E4E3F0E08A81FA
:1013E000808304C0E1E3F0E08A8180830F900F9056
:1013F0000F900F90CF91DF910895DF93CF9300D09E
:1014000000D0CDB7DEB789836A838981282F30E089
:101410003C832B838B819C8181309105D1F02B8182
:101420003C81223031052CF48B819C81009761F046
:101430001EC02B813C812230310581F08B819C8143
:101440008330910581F013C0EBE3F0E08A81808363
:101450000EC0E8E3F0E08A81808309C0E5E3F0E0B4
:101460008A81808304C0E2E3F0E08A8180830F9068
:101470000F900F900F90CF91DF910895DF93CF934E
:1014800000D000D00F92CDB7DEB789838981282F95
:1014900030E03C832B838B819C8181309105D1F09E
:1014A0002B813C81223031052CF48B819C8100976B
:1014B00061F01FC02B813C812230310581F08B818E
:1014C0009C818330910581F014C0E9E3F0E09081C4
:1014D0009A8310C0E6E3F0E020812A830BC0E3E3A7
:1014E000F0E030813A8306C0E0E3F0E080818A8357
:1014F00001C002C09A819D838D810F900F900F9043
:101500000F900F90CF91DF910895DF93CF93CDB7D8
:10151000DEB72F970FB6F894DEBF0FBECDBF8F8713
:1015200081E060E040E00E94BD0781E061E040E0D2
:101530000E94BD0782E06F850E94FD0981E062E0A4
:1015400041E00E94BD0780E090E0A0E0B0E48B871E
:101550009C87AD87BE876B857C858D859E8520E0C9
:1015600030E04AEF54E40E941F02DC01CB018F837C
:101570009887A987BA876F81788589859A8520E0C1
:1015800030E040E85FE30E94250488232CF481E0EA
:1015900090E09E838D833FC06F81788589859A8591
:1015A00020E03FEF4FE757E40E94C50318164CF5C3
:1015B0006B857C858D859E8520E030E040E251E49E
:1015C0000E941F02DC01CB01BC01CD010E94490039
:1015D000DC01CB019E838D830FC088EC90E09C835F
:1015E0008B838B819C810197F1F79C838B838D8109
:1015F0009E8101979E838D838D819E81009769F7DF
:1016000014C06F81788589859A850E944900DC0124
:10161000CB019E838D838D819E819A83898389816D
:101620009A810197F1F79A83898381E062E040E033
:101630000E94BD072F960FB6F894DEBF0FBECDBF38
:10164000CF91DF910895DF93CF93CDB7DEB72F977A
:101650000FB6F894DEBF0FBECDBF8F8781E060E08C
:1016600041E00E94BD0781E061E040E00E94BD07CB
:1016700082E06F850E94FD0981E062E041E00E9406
:10168000BD0780E090E0A0E0B0E48B879C87AD8749
:10169000BE876B857C858D859E8520E030E04AEF96
:1016A00054E40E941F02DC01CB018F839887A98735
:1016B000BA876F81788589859A8520E030E040E897
:1016C0005FE30E94250488232CF481E090E09E8350
:1016D0008D833FC06F81788589859A8520E03FEFB3
:1016E0004FE757E40E94C50318164CF56B857C85BF
:1016F0008D859E8520E030E040E251E40E941F028B
:10170000DC01CB01BC01CD010E944900DC01CB0111
:101710009E838D830FC088EC90E09C838B838B81AC
:101720009C810197F1F79C838B838D819E8101972A
:101730009E838D838D819E81009769F714C06F8190
:10174000788589859A850E944900DC01CB019E83BA
:101750008D838D819E819A83898389819A81019766
:10176000F1F79A83898381E062E040E00E94BD073F
:101770002F960FB6F894DEBF0FBECDBFCF91DF918D
:1017800008950F931F93DF93CF93CDB7DEB7CC545B
:10179000D0400FB6F894DEBF0FBECDBF82E06FEF32
:1017A0000E94BC0981E060E041E00E94BD0681E04A
:1017B00061E041E00E94BD0681E062E041E00E94FC
:1017C000BD06FE01E75BFF4F80E090E0A0EFB1E4D3
:1017D00080839183A283B3838E010B5B1F4FFE0135
:1017E000E75BFF4F608171818281938120E030E06F
:1017F0004AEF54E40E941F02DC01CB01F801808310
:101800009183A283B383FE01EB5BFF4F6081718103
:101810008281938120E030E040E85FE30E9425046C
:10182000882344F4FE01ED5BFF4F81E090E091835B
:10183000808364C0FE01EB5BFF4F60817181828118
:10184000938120E03FEF4FE757E40E94C50318164D
:101850000CF043C0FE01E75BFF4F60817181828124
:10186000938120E030E040E251E40E941F02DC015D
:10187000CB018E010D5B1F4FBC01CD010E944900C1
:10188000DC01CB01F801918380831FC0FE01EF5B77
:10189000FF4F88EC90E091838083FE01EF5BFF4F68
:1018A000808191810197F1F7FE01EF5BFF4F9183FA
:1018B0008083DE01AD5BBF4FFE01ED5BFF4F80819A
:1018C0009181019711969C938E93FE01ED5BFF4FE2
:1018D000808191810097D1F624C08E010D5B1F4F4E
:1018E000FE01EB5BFF4F60817181828193810E94D9
:1018F0004900DC01CB01F80191838083FE01ED5B9F
:10190000FF4F80819181FE01FF9691838083FE01CC
:10191000FF96808191810197F1F7FE01FF969183F7
:10192000808388E30E94850A80E090E0A0E2B2E430
:101930008BAF9CAFADAFBEAF6BAD7CAD8DAD9EAD93
:101940002BEA3AEA4AE250E40E941F02DC01CB0192
:101950008FAB98AFA9AFBAAF6FA978AD89AD9AAD8B
:1019600020E030E040E85FE30E94250488231CF477
:1019700081E08EAB91C06FA978AD89AD9AAD20E0C2
:1019800030E04FE753E40E94C50318160CF07BC00B
:101990006BAD7CAD8DAD9EAD20E030E04AE754E408
:1019A0000E941903DC01CB018AAB9BABACABBDAB96
:1019B0006AA97BA98CA99DA920E030E04AEF54E4F4
:1019C0000E941F02DC01CB018EA79FA7A8ABB9AB79
:1019D0006EA57FA588A999A920E030E040E85FE3E3
:1019E0000E94250488232CF481E090E09DA78CA719
:1019F0003FC06EA57FA588A999A920E03FEF4FE7DA
:101A000057E40E94C50318164CF56AA97BA98CA956
:101A10009DA920E030E040E251E40E941F02DC0179
:101A2000CB01BC01CD010E944900DC01CB019DA787
:101A30008CA70FC088EC90E09BA78AA78AA59BA5DE
:101A40000197F1F79BA78AA78CA59DA501979DA754
:101A50008CA78CA59DA5009769F724C06EA57FA5CE
:101A600088A999A90E944900DC01CB019DA78CA7F8
:101A70008CA59DA599A788A788A599A50197F1F799
:101A800099A788A70FC06FA978AD89AD9AAD0E94BC
:101A90004900DC01CB018EAB8EA98FA38FA18A9563
:101AA000F1F78FA38FE00E94850A80E090E0A0E22A
:101AB000B2E48BA39CA3ADA3BEA36BA17CA18DA11B
:101AC0009EA12BEA3AEA4AE250E40E941F02DC019E
:101AD000CB018F8F98A3A9A3BAA36F8D78A189A1F9
:101AE0009AA120E030E040E85FE30E9425048823CB
:101AF0001CF481E08E8F91C06F8D78A189A19AA18D
:101B000020E030E04FE753E40E94C50318160CF0C4
:101B10007BC06BA17CA18DA19EA120E030E04AE7B3
:101B200054E40E941903DC01CB018A8F9B8FAC8F98
:101B3000BD8F6A8D7B8D8C8D9D8D20E030E04AEFCE
:101B400054E40E941F02DC01CB018E8B9F8BA88F77
:101B5000B98F6E897F89888D998D20E030E040E8CB
:101B60005FE30E94250488232CF481E090E09D8BA4
:101B70008C8B3FC06E897F89888D998D20E03FEFE7
:101B80004FE757E40E94C50318164CF56A8D7B8D0C
:101B90008C8D9D8D20E030E040E251E40E941F02D8
:101BA000DC01CB01BC01CD010E944900DC01CB016D
:101BB0009D8B8C8B0FC088EC90E09B8B8A8B8A89E5
:101BC0009B890197F1F79B8B8A8B8C899D89019763
:101BD0009D8B8C8B8C899D89009769F724C06E89B9
:101BE0007F89888D998D0E944900DC01CB019D8BF6
:101BF0008C8B8C899D89998B888B88899989019791
:101C0000F1F7998B888B0FC06F8D78A189A19AA16C
:101C10000E944900DC01CB018E8F8E8D8F878F85CE
:101C20008A95F1F78F8781E00E94850A80E090E035
:101C3000A0E0B0E48B879C87AD87BE876B857C85F1
:101C40008D859E8520E030E04AEF54E40E941F021B
:101C5000DC01CB018F839887A987BA876F8178854C
:101C600089859A8520E030E040E85FE30E94250402
:101C700088232CF481E090E09E838D833FC06F81A8
:101C8000788589859A8520E03FEF4FE757E40E94E9
:101C9000C50318164CF56B857C858D859E8520E0E7
:101CA00030E040E251E40E941F02DC01CB01BC01A4
:101CB000CD010E944900DC01CB019E838D830FC0C2
:101CC00088EC90E09C838B838B819C810197F1F75A
:101CD0009C838B838D819E8101979E838D838D81D3
:101CE0009E81009769F714C06F81788589859A85F0
:101CF0000E944900DC01CB019E838D838D819E81F2
:101D00009A83898389819A810197F1F79A838983DC
:101D1000C45BDF4F0FB6F894DEBF0FBECDBFCF91CF
:101D2000DF911F910F910895DF93CF9300D00F9211
:101D3000CDB7DEB79B838A8319820EC08981282F95
:101D400030E08A819B81FC01E20FF31F80810E94B9
:101D5000230B89818F5F89838981282F30E08A81D5
:101D60009B81FC01E20FF31F8081882F90E020E02F
:101D70008036920719F70F900F900F90CF91DF9157
:101D80000895DF93CF9300D000D0CDB7DEB78A831C
:101D90007C836B838A81882F90E00896880F991F37
:101DA000880F991F880F991F0E94850A19820EC0FB
:101DB0008981282F30E08B819C81FC01E20FF31F89
:101DC00080810E94230B89818F5F8983898188307C
:101DD00078F380E80E94850A0F900F900F900F9083
:101DE000CF91DF910895DF93CF93CDB7DEB72997D9
:101DF0000FB6F894DEBF0FBECDBF6E837F8388879A
:101E0000998781E090E0A0E0B0E08A839B83AC8377
:101E1000BD8319828E819F81A885B985BB2394F4E7
:101E20008DE20E94230B8E819F81A885B985B09594
:101E3000A095909581959F4FAF4FBF4F8E839F8305
:101E4000A887B9878E819F81A885B9850097A1054C
:101E5000B105B1F480E30E94230B76C08A819B8197
:101E6000AC81BD812AE030E040E050E0BC01CD0112
:101E70000E946310DC01CB018A839B83AC83BD830A
:101E80008E819F81A885B9852A813B814C815D81A6
:101E9000BC01CD010E949610DA01C9010097A1058D
:101EA000B105E1F68A819B81AC81BD812AE030E0F9
:101EB00040E050E0BC01CD010E949610DA01C9015A
:101EC0008A839B83AC83BD8337C08E819F81A88525
:101ED000B9852A813B814C815D81BC01CD010E9485
:101EE0009610DA01C90189838981805D0E94230BE4
:101EF0008E819F81A885B9852A813B814C815D8136
:101F0000BC01CD010E949610DC01CB018E839F8322
:101F1000A887B9878A819B81AC81BD812AE030E0A6
:101F200040E050E0BC01CD010E949610DA01C901E9
:101F30008A839B83AC83BD838A819B81AC81BD8175
:101F40000097A105B10509F629960FB6F894DEBFF2
:101F50000FBECDBFCF91DF910895DF93CF93CDB763
:101F6000DEB764970FB6F894DEBF0FBECDBF0E94F8
:101F70004F060E94C10B80E00E948E069C8B8B8BCB
:101F80008B899C89CC01A0E0B0E028E833E140E0F7
:101F900050E0BC01CD010E946310DC01CB01072E93
:101FA0007AE0B695A795979587957A95D1F7702D94
:101FB0009A8B898B89899A892AE030E0B9010E943D
:101FC0008210CB01988B8F878F859889CC01A0E0F8
:101FD000B0E0BC01CD010E94F30E80E090E0AAEFDA
:101FE000B3E48B879C87AD87BE876B857C858D85A9
:101FF0009E8520E030E04AEF54E40E941F02DC019D
:10200000CB018F839887A987BA876F817885898567
:102010009A8520E030E040E85FE30E9425048823B1
:102020002CF481E090E09E838D833FC06F817885A2
:1020300089859A8520E03FEF4FE757E40E94C5036A
:1020400018164CF56B857C858D859E8520E030E0EB
:1020500040E251E40E941F02DC01CB01BC01CD0132
:102060000E944900DC01CB019E838D830FC088EC68
:1020700090E09C838B838B819C810197F1F79C83FB
:102080008B838D819E8101979E838D838D819E811F
:10209000009769F714C06F81788589859A850E94B9
:1020A0004900DC01CB019E838D838D819E819A83C3
:1020B000898389819A810197F1F79A83898381E0E5
:1020C0000E94850A58CF629FD001739FF001829FC2
:1020D000E00DF11D649FE00DF11D929FF00D839FB7
:1020E000F00D749FF00D659FF00D9927729FB00D54
:1020F000E11DF91F639FB00DE11DF91FBD01CF0167
:1021000011240895AA1BBB1B51E107C0AA1FBB1FC6
:10211000A617B70710F0A61BB70B881F991F5A9573
:10212000A9F780959095BC01CD010895A1E21A2EE2
:10213000AA1BBB1BFD010DC0AA1FBB1FEE1FFF1F6B
:10214000A217B307E407F50720F0A21BB30BE40BBB
:10215000F50B661F771F881F991F1A9469F7609502
:102160007095809590959B01AC01BD01CF010895BC
:102170002F923F924F925F926F927F928F929F9297
:10218000AF92BF92CF92DF92EF92FF920F931F9385
:10219000CF93DF93CDB7DEB7CA1BDB0B0FB6F89436
:1021A000DEBF0FBECDBF09942A88398848885F8476
:1021B0006E847D848C849B84AA84B984C884DF80E7
:1021C000EE80FD800C811B81AA81B981CE0FD11DCB
:1021D0000FB6F894DEBF0FBECDBFED010895F894A1
:0221E000FFCF2F
:0A21E20000000000000000000000F3
:00000001FF
