:100000000C942A000C943C000C943C000C943C0092
:100010000C943C000C943C000C943C000C943C0070
:100020000C943C000C943C000C943C000C943C0060
:100030000C943C000C943C000C943C000C943C0050
:100040000C943C000C943C000C943C000C943C0040
:100050000C943C0011241FBECFE5D8E0DEBFCDBF1D
:1000600010E0A0E6B0E001C01D92A037B107E1F7B3
:100070000E948C040C94C8040C940000DF93CF936E
:10008000CDB7DEB727970FB6F894DEBF0FBECDBF52
:1000900089836A834B838B81813009F06FC08981AA
:1000A000282F30E03F832E838E819F818130910500
:1000B00049F12E813F81223031052CF48E819F81C0
:1000C000009761F0D2C02E813F812230310571F15D
:1000D0008E819F8183309105E9F1C7C0AAE3B0E02A
:1000E000EAE3F0E08081482F8A81282F30E081E028
:1000F00090E0022E02C0880F991F0A94E2F7842B29
:100100008C93B3C0A7E3B0E0E7E3F0E08081482F31
:100110008A81282F30E081E090E0022E02C0880F13
:10012000991F0A94E2F7842B8C939FC0A4E3B0E05C
:10013000E4E3F0E08081482F8A81282F30E081E0DD
:1001400090E0022E02C0880F991F0A94E2F7842BD8
:100150008C938BC0A1E3B0E0E1E3F0E08081482F15
:100160008A81282F30E081E090E0022E02C0880FC3
:10017000991F0A94E2F7842B8C9377C08B81882394
:1001800009F073C08981282F30E03D832C838C8156
:100190009D818130910559F12C813D8122303105BD
:1001A0002CF48C819D81009769F05FC02C813D818A
:1001B0002230310589F18C819D818330910509F4CC
:1001C00040C053C0AAE3B0E0EAE3F0E08081482FEA
:1001D0008A81282F30E081E090E0022E02C0880F53
:1001E000991F0A94E2F7809584238C933EC0A7E37D
:1001F000B0E0E7E3F0E08081482F8A81282F30E0EB
:1002000081E090E0022E02C0880F991F0A94E2F765
:10021000809584238C9329C0A4E3B0E0E4E3F0E06C
:100220008081482F8A81282F30E081E090E0022EE3
:1002300002C0880F991F0A94E2F7809584238C935B
:1002400014C0A1E3B0E0E1E3F0E08081482F8A81AF
:10025000282F30E081E090E0022E02C0880F991F25
:100260000A94E2F7809584238C9327960FB6F8942E
:10027000DEBF0FBECDBFCF91DF910895DF93CF9347
:10028000CDB7DEB727970FB6F894DEBF0FBECDBF50
:1002900089836A834B838B81813009F06FC08981A8
:1002A000282F30E03F832E838E819F8181309105FE
:1002B00049F12E813F81223031052CF48E819F81BE
:1002C000009761F0D2C02E813F812230310571F15B
:1002D0008E819F8183309105E9F1C7C0ABE3B0E027
:1002E000EBE3F0E08081482F8A81282F30E081E025
:1002F00090E0022E02C0880F991F0A94E2F7842B27
:100300008C93B3C0A8E3B0E0E8E3F0E08081482F2D
:100310008A81282F30E081E090E0022E02C0880F11
:10032000991F0A94E2F7842B8C939FC0A5E3B0E059
:10033000E5E3F0E08081482F8A81282F30E081E0DA
:1003400090E0022E02C0880F991F0A94E2F7842BD6
:100350008C938BC0A2E3B0E0E2E3F0E08081482F11
:100360008A81282F30E081E090E0022E02C0880FC1
:10037000991F0A94E2F7842B8C9377C08B81882392
:1003800009F073C08981282F30E03D832C838C8154
:100390009D818130910559F12C813D8122303105BB
:1003A0002CF48C819D81009769F05FC02C813D8188
:1003B0002230310589F18C819D818330910509F4CA
:1003C00040C053C0ABE3B0E0EBE3F0E08081482FE6
:1003D0008A81282F30E081E090E0022E02C0880F51
:1003E000991F0A94E2F7809584238C933EC0A8E37A
:1003F000B0E0E8E3F0E08081482F8A81282F30E0E8
:1004000081E090E0022E02C0880F991F0A94E2F763
:10041000809584238C9329C0A5E3B0E0E5E3F0E068
:100420008081482F8A81282F30E081E090E0022EE1
:1004300002C0880F991F0A94E2F7809584238C9359
:1004400014C0A2E3B0E0E2E3F0E08081482F8A81AB
:10045000282F30E081E090E0022E02C0880F991F23
:100460000A94E2F7809584238C9327960FB6F8942C
:10047000DEBF0FBECDBFCF91DF910895DF93CF9345
:1004800000D000D000D0CDB7DEB789836A838981E0
:10049000282F30E03D832C834C815D814130510514
:1004A00049F18C819D818230910534F42C813D810C
:1004B0002115310561F057C04C815D8142305105F5
:1004C00061F18C819D8183309105D1F14CC0E9E3CC
:1004D000F0E08081282F30E08A81882F90E0A90108
:1004E00002C0559547958A95E2F7CA01582F517079
:1004F0005B833AC0E6E3F0E08081282F30E08A8118
:10050000882F90E0A90102C0559547958A95E2F79A
:10051000CA01582F51705B8327C0E3E3F0E080816C
:10052000282F30E08A81882F90E0A90102C05595DC
:1005300047958A95E2F7CA01582F51705B8314C022
:10054000E0E3F0E08081282F30E08A81882F90E07E
:10055000A90102C0559547958A95E2F7CA01582F1F
:1005600051705B8301C002C08B818E838E81269681
:100570000FB6F894DEBF0FBECDBFCF91DF910895C7
:10058000DF93CF9300D000D0CDB7DEB789836A83E5
:100590008981282F30E03C832B838B819C818130A3
:1005A000910549F12B813C81223031052CF48B815E
:1005B0009C81009761F05AC02B813C81223031052B
:1005C00071F18B819C8183309105E9F14FC0ABE3E0
:1005D000B0E0EBE3F0E08081482F8A81282F30E003
:1005E00081E090E0022E02C0880F991F0A94E2F782
:1005F00084278C933BC0A8E3B0E0E8E3F0E080817F
:10060000482F8A81282F30E081E090E0022E02C03E
:10061000880F991F0A94E2F784278C9327C0A5E3DB
:10062000B0E0E5E3F0E08081482F8A81282F30E0B8
:1006300081E090E0022E02C0880F991F0A94E2F731
:1006400084278C9313C0A2E3B0E0E2E3F0E0808162
:10065000482F8A81282F30E081E090E0022E02C0EE
:10066000880F991F0A94E2F784278C930F900F90BC
:100670000F900F90CF91DF910895DF93CF9300D02B
:1006800000D0CDB7DEB789836A838981282F30E017
:100690003C832B838B819C8181309105D1F02B8110
:1006A0003C81223031052CF48B819C81009761F0D4
:1006B0001EC02B813C812230310581F08B819C81D1
:1006C0008330910581F013C0EAE3F0E08A818083F2
:1006D0000EC0E7E3F0E08A81808309C0E4E3F0E044
:1006E0008A81808304C0E1E3F0E08A8180830F90F7
:1006F0000F900F900F90CF91DF910895DF93CF93DC
:1007000000D000D0CDB7DEB789836A838981282FD6
:1007100030E03C832B838B819C8181309105D1F02B
:100720002B813C81223031052CF48B819C810097F8
:1007300061F01EC02B813C812230310581F08B811C
:100740009C818330910581F013C0EBE3F0E08A8156
:1007500080830EC0E8E3F0E08A81808309C0E5E38E
:10076000F0E08A81808304C0E2E3F0E08A81808344
:100770000F900F900F900F90CF91DF910895DF931E
:10078000CF9300D000D00F92CDB7DEB78983898197
:10079000282F30E03C832B838B819C818130910515
:1007A000D1F02B813C81223031052CF48B819C814E
:1007B000009761F01FC02B813C812230310581F010
:1007C0008B819C818330910581F014C0E9E3F0E0D6
:1007D00090819A8310C0E6E3F0E020812A830BC069
:1007E000E3E3F0E030813A8306C0E0E3F0E08081AB
:1007F0008A8301C002C09A819D838D810F900F90E2
:100800000F900F900F90CF91DF910895DF93CF93CA
:100810000F92CDB7DEB780E88983898182608983B2
:10082000898184608983AAE2B0E0EAE2F0E0808115
:100830008B7F8C9389818F7E898389818F7D89834A
:100840008981877F898389818F7B8983E0E4F0E0D8
:1008500086E88083E0E4F0E01082E9E2F0E083E300
:100860008083AAE2B0E0EAE2F0E0808180618C93CC
:10087000AAE2B0E0EAE2F0E0808188608C930F9019
:10088000CF91DF910895DF93CF930F92CDB7DEB76D
:100890008983EBE2F0E08081829586958770882FCE
:1008A00090E0817090700097A1F3ECE2F0E0898114
:1008B0008083EBE2F0E08081829586958695837057
:1008C000882F90E081709070009799F3ABE2B0E0D0
:1008D000EBE2F0E0808180648C930F90CF91DF9108
:1008E0000895DF93CF9300D0CDB7DEB79A83898385
:1008F000EBE2F0E080818823DCF789819A81009720
:1009000031F0ECE2F0E08081E981FA8180830F90A0
:100910000F90CF91DF910895DF93CF9300D00F9286
:10092000CDB7DEB780E060E041E00E943E0083E0AA
:1009300060E040E00E943E0083E061E041E00E9410
:100940003E000E940604CE0101960E947104898136
:10095000882F90E00E9443048981282F30E03B8358
:100960002A838A819B818134910531F02A813B81E0
:100970002234310539F0E7CF80E060E041E00E94A9
:100980003E01E1CF80E060E040E00E943E01DBCF2D
:04099000F894FFCF09
:00000001FF
